{
  "_format": "hh-sol-artifact-1",
  "contractName": "MoneySaver",
  "sourceName": "contracts/SavingContract.sol",
  "abi": [
    {
      "inputs": [],
      "stateMutability": "nonpayable",
      "type": "constructor"
    },
    {
      "inputs": [
        {
          "internalType": "address",
          "name": "",
          "type": "address"
        }
      ],
      "name": "balances",
      "outputs": [
        {
          "internalType": "uint256",
          "name": "balance",
          "type": "uint256"
        },
        {
          "internalType": "uint256",
          "name": "endTime",
          "type": "uint256"
        }
      ],
      "stateMutability": "view",
      "type": "function"
    },
    {
      "inputs": [
        {
          "internalType": "uint256",
          "name": "_endTime",
          "type": "uint256"
        }
      ],
      "name": "deposit",
      "outputs": [],
      "stateMutability": "payable",
      "type": "function"
    },
    {
      "inputs": [],
      "name": "owner",
      "outputs": [
        {
          "internalType": "address",
          "name": "",
          "type": "address"
        }
      ],
      "stateMutability": "view",
      "type": "function"
    },
    {
      "inputs": [],
      "name": "withdrawAll",
      "outputs": [],
      "stateMutability": "nonpayable",
      "type": "function"
    }
  ],
  "bytecode": "0x60806040526201518060025534801561001757600080fd5b50336000806101000a81548173ffffffffffffffffffffffffffffffffffffffff021916908373ffffffffffffffffffffffffffffffffffffffff1602179055506108a2806100676000396000f3fe60806040526004361061003f5760003560e01c806327e235e314610044578063853828b6146100825780638da5cb5b14610099578063b6b55f25146100c4575b600080fd5b34801561005057600080fd5b5061006b60048036038101906100669190610512565b6100e0565b604051610079929190610558565b60405180910390f35b34801561008e57600080fd5b50610097610104565b005b3480156100a557600080fd5b506100ae61033f565b6040516100bb9190610590565b60405180910390f35b6100de60048036038101906100d991906105d7565b610363565b005b60016020528060005260406000206000915090508060000154908060010154905082565b6000600160003373ffffffffffffffffffffffffffffffffffffffff1673ffffffffffffffffffffffffffffffffffffffff1681526020019081526020016000206000015411610189576040517f08c379a000000000000000000000000000000000000000000000000000000000815260040161018090610661565b60405180910390fd5b600160003373ffffffffffffffffffffffffffffffffffffffff1673ffffffffffffffffffffffffffffffffffffffff16815260200190815260200160002060010154421161020d576040517f08c379a0000000000000000000000000000000000000000000000000000000008152600401610204906106cd565b60405180910390fd5b6000600160003373ffffffffffffffffffffffffffffffffffffffff1673ffffffffffffffffffffffffffffffffffffffff16815260200190815260200160002060000154905080600160003373ffffffffffffffffffffffffffffffffffffffff1673ffffffffffffffffffffffffffffffffffffffff16815260200190815260200160002060000160008282546102a6919061071c565b925050819055506000600160003373ffffffffffffffffffffffffffffffffffffffff1673ffffffffffffffffffffffffffffffffffffffff168152602001908152602001600020600101819055503373ffffffffffffffffffffffffffffffffffffffff166108fc829081150290604051600060405180830381858888f1935050505015801561033b573d6000803e3d6000fd5b5050565b60008054906101000a900473ffffffffffffffffffffffffffffffffffffffff1681565b34600081116103a7576040517f08c379a000000000000000000000000000000000000000000000000000000000815260040161039e9061079c565b60405180910390fd5b34600160003373ffffffffffffffffffffffffffffffffffffffff1673ffffffffffffffffffffffffffffffffffffffff16815260200190815260200160002060000160008282546103f991906107bc565b925050819055506000600160003373ffffffffffffffffffffffffffffffffffffffff1673ffffffffffffffffffffffffffffffffffffffff1681526020019081526020016000206001015414156104ab57600254826104599190610812565b4261046491906107bc565b600160003373ffffffffffffffffffffffffffffffffffffffff1673ffffffffffffffffffffffffffffffffffffffff168152602001908152602001600020600101819055505b5050565b600080fd5b600073ffffffffffffffffffffffffffffffffffffffff82169050919050565b60006104df826104b4565b9050919050565b6104ef816104d4565b81146104fa57600080fd5b50565b60008135905061050c816104e6565b92915050565b600060208284031215610528576105276104af565b5b6000610536848285016104fd565b91505092915050565b6000819050919050565b6105528161053f565b82525050565b600060408201905061056d6000830185610549565b61057a6020830184610549565b9392505050565b61058a816104d4565b82525050565b60006020820190506105a56000830184610581565b92915050565b6105b48161053f565b81146105bf57600080fd5b50565b6000813590506105d1816105ab565b92915050565b6000602082840312156105ed576105ec6104af565b5b60006105fb848285016105c2565b91505092915050565b600082825260208201905092915050565b7f4e6f206d6f6e657920746f207769746864726177000000000000000000000000600082015250565b600061064b601483610604565b915061065682610615565b602082019050919050565b6000602082019050818103600083015261067a8161063e565b9050919050565b7f5761697420666f72207769746864726177616c2074696d650000000000000000600082015250565b60006106b7601883610604565b91506106c282610681565b602082019050919050565b600060208201905081810360008301526106e6816106aa565b9050919050565b7f4e487b7100000000000000000000000000000000000000000000000000000000600052601160045260246000fd5b60006107278261053f565b91506107328361053f565b925082821015610745576107446106ed565b5b828203905092915050565b7f4f6e6c7920706f73697469766520616d6f756e74000000000000000000000000600082015250565b6000610786601483610604565b915061079182610750565b602082019050919050565b600060208201905081810360008301526107b581610779565b9050919050565b60006107c78261053f565b91506107d28361053f565b9250827fffffffffffffffffffffffffffffffffffffffffffffffffffffffffffffffff03821115610807576108066106ed565b5b828201905092915050565b600061081d8261053f565b91506108288361053f565b9250817fffffffffffffffffffffffffffffffffffffffffffffffffffffffffffffffff0483118215151615610861576108606106ed565b5b82820290509291505056fea2646970667358221220c0c4fee2c6726f69588c1a1db4a4f4bfaee2f49b411381bfaff52588f44d128464736f6c634300080a0033",
  "linkReferences": {},
  "deployedLinkReferences": {}
}