{
  "_format": "hh-sol-artifact-1",
  "contractName": "MoneySaver",
  "sourceName": "contracts/SavingContract.sol",
  "abi": [
    {
      "inputs": [],
      "stateMutability": "nonpayable",
      "type": "constructor"
    },
    {
      "inputs": [
        {
          "internalType": "address",
          "name": "",
          "type": "address"
        }
      ],
      "name": "balances",
      "outputs": [
        {
          "internalType": "uint256",
          "name": "balance",
          "type": "uint256"
        },
        {
          "internalType": "uint256",
          "name": "endTime",
          "type": "uint256"
        }
      ],
      "stateMutability": "view",
      "type": "function"
    },
    {
      "inputs": [
        {
          "internalType": "uint256",
          "name": "_endTime",
          "type": "uint256"
        }
      ],
      "name": "deposit",
      "outputs": [],
      "stateMutability": "payable",
      "type": "function"
    },
    {
      "inputs": [],
      "name": "owner",
      "outputs": [
        {
          "internalType": "address",
          "name": "",
          "type": "address"
        }
      ],
      "stateMutability": "view",
      "type": "function"
    },
    {
      "inputs": [],
      "name": "withdrawAll",
      "outputs": [],
      "stateMutability": "nonpayable",
      "type": "function"
    }
  ],
  "bytecode": "0x60806040526201518060025534801561001757600080fd5b50336000806101000a81548173ffffffffffffffffffffffffffffffffffffffff021916908373ffffffffffffffffffffffffffffffffffffffff1602179055506108a4806100676000396000f3fe60806040526004361061003f5760003560e01c806327e235e314610044578063853828b6146100825780638da5cb5b14610099578063b6b55f25146100c4575b600080fd5b34801561005057600080fd5b5061006b60048036038101906100669190610514565b6100e0565b60405161007992919061055a565b60405180910390f35b34801561008e57600080fd5b50610097610104565b005b3480156100a557600080fd5b506100ae61033f565b6040516100bb9190610592565b60405180910390f35b6100de60048036038101906100d991906105d9565b610363565b005b60016020528060005260406000206000915090508060000154908060010154905082565b6000600160003373ffffffffffffffffffffffffffffffffffffffff1673ffffffffffffffffffffffffffffffffffffffff1681526020019081526020016000206000015411610189576040517f08c379a000000000000000000000000000000000000000000000000000000000815260040161018090610663565b60405180910390fd5b600160003373ffffffffffffffffffffffffffffffffffffffff1673ffffffffffffffffffffffffffffffffffffffff16815260200190815260200160002060010154421161020d576040517f08c379a0000000000000000000000000000000000000000000000000000000008152600401610204906106cf565b60405180910390fd5b6000600160003373ffffffffffffffffffffffffffffffffffffffff1673ffffffffffffffffffffffffffffffffffffffff16815260200190815260200160002060000154905080600160003373ffffffffffffffffffffffffffffffffffffffff1673ffffffffffffffffffffffffffffffffffffffff16815260200190815260200160002060000160008282546102a6919061071e565b925050819055506000600160003373ffffffffffffffffffffffffffffffffffffffff1673ffffffffffffffffffffffffffffffffffffffff168152602001908152602001600020600101819055503373ffffffffffffffffffffffffffffffffffffffff166108fc829081150290604051600060405180830381858888f1935050505015801561033b573d6000803e3d6000fd5b5050565b60008054906101000a900473ffffffffffffffffffffffffffffffffffffffff1681565b34600081116103a7576040517f08c379a000000000000000000000000000000000000000000000000000000000815260040161039e9061079e565b60405180910390fd5b34600160003373ffffffffffffffffffffffffffffffffffffffff1673ffffffffffffffffffffffffffffffffffffffff16815260200190815260200160002060000160008282546103f991906107be565b925050819055506000600160003373ffffffffffffffffffffffffffffffffffffffff1673ffffffffffffffffffffffffffffffffffffffff1681526020019081526020016000206001015414156104ad5781600160003373ffffffffffffffffffffffffffffffffffffffff1673ffffffffffffffffffffffffffffffffffffffff16815260200190815260200160002060010181905550600254826104a09190610814565b426104ab91906107be565b505b5050565b600080fd5b600073ffffffffffffffffffffffffffffffffffffffff82169050919050565b60006104e1826104b6565b9050919050565b6104f1816104d6565b81146104fc57600080fd5b50565b60008135905061050e816104e8565b92915050565b60006020828403121561052a576105296104b1565b5b6000610538848285016104ff565b91505092915050565b6000819050919050565b61055481610541565b82525050565b600060408201905061056f600083018561054b565b61057c602083018461054b565b9392505050565b61058c816104d6565b82525050565b60006020820190506105a76000830184610583565b92915050565b6105b681610541565b81146105c157600080fd5b50565b6000813590506105d3816105ad565b92915050565b6000602082840312156105ef576105ee6104b1565b5b60006105fd848285016105c4565b91505092915050565b600082825260208201905092915050565b7f4e6f206d6f6e657920746f207769746864726177000000000000000000000000600082015250565b600061064d601483610606565b915061065882610617565b602082019050919050565b6000602082019050818103600083015261067c81610640565b9050919050565b7f5761697420666f72207769746864726177616c2074696d650000000000000000600082015250565b60006106b9601883610606565b91506106c482610683565b602082019050919050565b600060208201905081810360008301526106e8816106ac565b9050919050565b7f4e487b7100000000000000000000000000000000000000000000000000000000600052601160045260246000fd5b600061072982610541565b915061073483610541565b925082821015610747576107466106ef565b5b828203905092915050565b7f4f6e6c7920706f73697469766520616d6f756e74000000000000000000000000600082015250565b6000610788601483610606565b915061079382610752565b602082019050919050565b600060208201905081810360008301526107b78161077b565b9050919050565b60006107c982610541565b91506107d483610541565b9250827fffffffffffffffffffffffffffffffffffffffffffffffffffffffffffffffff03821115610809576108086106ef565b5b828201905092915050565b600061081f82610541565b915061082a83610541565b9250817fffffffffffffffffffffffffffffffffffffffffffffffffffffffffffffffff0483118215151615610863576108626106ef565b5b82820290509291505056fea26469706673582212209c8db9c63d9e867fe5551e3658b9fd2ff931a1508d268c944849b878a310d37d64736f6c634300080a0033",
  "linkReferences": {},
  "deployedLinkReferences": {}
}